:020000040000FA
:0400000007EF00F016
:0A0008005D8276ED09F037EF0BF092
:100800000054656D706F3A202030207320005465CD
:100810006D706F3A2020256920730054656D706FEC
:0F0820003A20203020730053656E736F72000012
:100830001FC037F020C038F021C039F022C03AF094
:1008400023C03BF024C03CF025C03DF026C03EF064
:100850003EBE2DEF04F030EF04F0010E31EF04F056
:10086000000E356E366A35503610D8B43AEF04F0C3
:100870003CEF04F04CEF04F03E1E3D1E3C1E3B1EC0
:100880003A1E391E381E376C000E382239223A22A1
:100890003B223C223D223E225ABE51EF04F053EF50
:1008A00004F054EF04F05B925ABE61EF04F05A502A
:1008B00006E15904D8B05FEF04F061EF04F067EF90
:1008C00004F0000E326E010E316E6BEF04F059C071
:1008D00031F05AC032F057C033F058C034F03550C0
:1008E0003610D8A476EF04F078EF04F07FEF04F030
:1008F0005BA47DEF04F07FEF04F082EF04F0330699
:10090000D8A03406000E406E1F0E3F6E000E000190
:100910009F6F07EF05F03F06D8A04006800E3F24EA
:10092000D96E000E4020DA6E37C002F038C003F0F6
:1009300039C004F03AC005F03BC006F03CC007F0F7
:100940003DC008F03EC009F00A0E0A6E000E0B6EA4
:10095000000E0C6E000E0D6E000E0E6E000E0F6E71
:10096000000E106E000E116E24EC07F002C027F08E
:1009700003C028F004C029F005C02AF006C02BF0FF
:1009800007C02CF008C02DF009C02EF027C014F0CD
:1009900029C015F017EC0BF01450300FDF6E310644
:1009A000D8A032063306D8A0340637C002F038C0CB
:1009B00003F039C004F03AC005F03BC006F03CC07B
:1009C00007F03DC008F03EC009F00A0E0A6E000EA6
:1009D0000B6E000E0C6E000E0D6E000E0E6E000EF5
:1009E0000F6E000E106E000E116E60EC06F002C06D
:1009F00037F003C038F004C039F005C03AF006C043
:100A00003BF007C03CF008C03DF009C03EF040BEDE
:100A100012EF05F0405008E13F04D8A012EF05F0B6
:100A200014EF05F044EF05F03750381039103A1044
:100A30003B103C103D103E10D8A421EF05F023EFF1
:100A400005F08BEF04F032BE30EF05F0325006E1D6
:100A50003104D8B02EEF05F030EF05F08BEF04F045
:100A600034BE3BEF05F0345008E13304D8A03BEF2F
:100A700005F03DEF05F044EF05F05BB242EF05F005
:100A800044EF05F08BEF04F035503610D8A44BEF4F
:100A900005F04DEF05F054EF05F05BA452EF05F0C3
:100AA00054EF05F072EF05F03F06D8A04006355030
:100AB0003610D8A45EEF05F060EF05F066EF05F0A4
:100AC000000E306E2B0E2F6E6AEF05F0000E306EAA
:100AD0002D0E2F6E800E3F24D96E000E4020DA6E50
:100AE0002FC0DFFF1DC012F01EC013F0800E3F2488
:100AF000146E000E4020156E33C016F034C017F08F
:100B000015EC09F012C01DF013C01EF0120043C016
:100B1000D9FF44C0DAFFDECFF6FFDDCFF7FF0800D4
:100B2000F550250AD8A497EF05F099EF05F044EFAA
:100B300006F043C0D9FF44C0DAFFDE2A000EDD22F2
:100B4000000E586E000E576E57C05BF058C05CF038
:100B500059685A6843C0D9FF44C0DAFFDECFF6FFB8
:100B6000DDCFF7FF0800F550640AD8B4BAEF05F0FE
:100B7000BCEF05F0CEEF05F043C0D9FF44C0DAFF6B
:100B8000DECFF6FFDDCFF7FF0800F550690AD8A4E5
:100B9000CCEF05F0CEEF05F00EEF06F043C0D9FF25
:100BA00044C0DAFFDE2A000EDD2245C0D9FF46C070
:100BB000DAFFDFCF47F0020EDE26DFCF48F0000E6F
:100BC000DD2247C0D9FF48C0DAFFDECF49F0DDCFD4
:100BD0004AF0000E4ABEFF0E4B6E4C6E4D6E4E6ECE
:100BE0004F6E506E41C01DF042C01EF049C01FF054
:100BF0004AC020F04BC021F04CC022F04DC023F081
:100C00004EC024F04FC025F050C026F018EC04F080
:100C10001DC041F01EC042F05FEF06F043C0D9FF97
:100C200044C0DAFFDECFF6FFDDCFF7FF0800F55056
:100C3000250AD8A41EEF06F020EF06F037EF06F0E5
:100C400043C0D9FF44C0DAFFDE2A000EDD22000EC9
:100C5000036E250E026E41C004F042C005F04EEC5A
:100C600008F0000E426E010E416E5FEF06F043C0C9
:100C7000D9FF44C0DAFFDE2A000EDD22000E426EEC
:100C8000000E416E5FEF06F043C0D9FF44C0DAFFAB
:100C9000DECFF6FFDDCFF7FF0800F550026E036AE6
:100CA00041C004F042C005F04EEC08F043C0D9FF4B
:100CB00044C0DAFFDE2A000EDD2231EF06F012001A
:100CC000000E136E11BE69EF06F067EF06F07BEFC2
:100CD00006F0111E101E0F1E0E1E0D1E0C1E0B1EEA
:100CE0000A6C000E0B220C220D220E220F22102263
:100CF0001122010E136E09BE82EF06F080EF06F09E
:100D000094EF06F0091E081E071E061E051E041E8F
:100D1000031E026C000E0322042205220622072273
:100D200008220922010E131A20EE14F0070EDE6AC3
:100D3000E806FDE20A500B100C100D100E100F10FB
:100D400010101110D8B4A7EF06F0A9EF06F0FBEFD2
:100D500006F0010E126EB7EF06F0D8900A360B3689
:100D60000C360D360E360F3610361136122A11AEED
:100D7000BCEF06F0BEEF06F0ADEF06F0D8901436EB
:100D8000153616361736183619361A361B360A50E7
:100D9000025C0B5003580C5004580D5005580E506F
:100DA00006580F5007581050085811500958D8A02D
:100DB000DCEF06F0DEEF06F0EFEF06F00A50025E21
:100DC0000B50035A0C50045A0D50055A0E50065A37
:100DD0000F50075A1050085A1150095A1480D890D1
:100DE000113210320F320E320D320C320B320A3207
:100DF000122EBEEF06F01350D8B401EF07F003EF48
:100E000007F013EF07F01B1E1A1E191E181E171EDF
:100E1000161E151E146C000E1522162217221822FB
:100E200019221A221B2214C002F015C003F016C0AA
:100E300004F017C005F018C006F019C007F01AC07A
:100E400008F01BC009F01200000E136E09BE2DEF52
:100E500007F02BEF07F03FEF07F0091E081E071EF3
:100E6000061E051E041E031E026C000E0322042231
:100E700005220622072208220922010E136E11BE46
:100E800046EF07F044EF07F056EF07F0111E101E73
:100E90000F1E0E1E0D1E0C1E0B1E0A6C000E0B22CA
:100EA0000C220D220E220F22102211220A500B10AA
:100EB0000C100D100E100F1010101110D8B463EF9D
:100EC00007F065EF07F0ADEF07F0010E126E73EF5C
:100ED00007F0D8900A360B360C360D360E360F3624
:100EE00010361136122A11AE78EF07F07AEF07F0BC
:100EF00069EF07F00A50025C0B5003580C5004587D
:100F00000D5005580E5006580F50075810500858ED
:100F100011500958D8A08FEF07F091EF07F0A1EF1B
:100F200007F00A50025E0B50035A0C50045A0D5041
:100F3000055A0E50065A0F50075A1050085A1150B1
:100F4000095AD890113210320F320E320D320C3253
:100F50000B320A32122E7AEF07F01350D8B4B3EFE7
:100F600007F0B5EF07F0C5EF07F0091E081E071ED2
:100F7000061E051E041E031E026C000E0322042220
:100F80000522062207220822092202C002F003C01D
:100F900003F004C004F005C005F006C006F007C069
:100FA00007F008C008F009C009F01200600ED36E07
:100FB000000E956E030E936E070E966EC150F00BE9
:100FC0000A09C16E01EC0AF09DEC0BF0010E056EF2
:100FD000010E3AEC0AF0270E066E080E076EC2EC00
:100FE00009F0010E056E020E3AEC0AF01B0E066EB9
:100FF000080E076EC2EC09F0A6EC0BF00001C1BFB1
:101000000BEF08F0C15109E1020EC05DD8A00BEF53
:1010100008F00DEF08F032EF08F0A00EB26F000EEE
:10102000B36F0E0EB46F080EB56FC0C002F0C1C032
:1010300003F0000E056E0A0E046EB3EC08F002C059
:10104000B6F003C0B7F0CCEC0AF0010E056E020E4C
:101050003AEC0AF0A00E066E000E076EC2EC09F024
:10106000FEEF07F074517511D8A439EF08F03BEF8B
:1010700008F0FEEF07F0A00EB26F000EB36F010E86
:10108000B46F080EB56FCCEC0AF0010E056E020EBF
:101090003AEC0AF02AEF08F007EF00F004500510D0
:1010A000D8B455EF08F057EF08F060EF08F004509F
:1010B0000510D8A45EEF08F060EF08F065EF08F0C7
:1010C0000250ACEC0BF0B2EF08F020EE04F004504C
:1010D000D9260550DA22DE50DE10D8B472EF08F0BF
:1010E00074EF08F08FEF08F020EE04F00450D926DA
:1010F0000550DA2210EE02F00450E1260550E222FB
:10110000DE50E65CE650800A0A6EDE50800A0A581D
:10111000D8B08DEF08F08FEF08F0B2EF08F020EEB6
:1011200002F00450D9260550DA22DECF06F0DDCFDA
:1011300007F004C0D9FF05C0DAFFDECF08F0DDCF2D
:1011400009F006500824D96E07500920DA6E02C053
:10115000DFFF20EE02F00450D9260550DA22DE2A05
:10116000000EDD221200000E076E05BEBCEF08F077
:10117000BAEF08F0C2EF08F0046C051ED8B0052ADB
:10118000010E076E03BEC9EF08F0C7EF08F0CFEFFE
:1011900008F0026C031ED8B0032A010E071A000ED5
:1011A000096E000E086E04500510D8B4DAEF08F08E
:1011B000DCEF08F004EF09F0010E066EE4EF08F032
:1011C000D89004360536062A05AEE9EF08F0EBEFB5
:1011D00008F0E0EF08F0D890083609360450025CB9
:1011E00005500358D8A0F7EF08F0F9EF08F0FEEF2C
:1011F00008F00450025E0550035A0880D89005326A
:101200000432062EEBEF08F00750D8B40AEF09F0CD
:101210000CEF09F010EF09F0086C091ED8B0092A8C
:1012200008C002F009C003F012005BA01AEF09F039
:101230001CEF09F026EF09F014C00BF015C00CF0FC
:1012400012C00DF013C00EF0F5EC0AF017BE2BEF34
:1012500009F02DEF09F033EF09F016C01BF017C0AD
:101260001CF037EF09F0000E1C6E000E1B6E000E16
:101270001A6E000E196E49EF09F0000E036E200E73
:10128000026E12C004F013C005F04EEC08F0194ACB
:101290001A2A1B50195C1A50800A186E1C50800ABA
:1012A0001858D8A056EF09F058EF09F03DEF09F0B3
:1012B0005BB05DEF09F05FEF09F069EF09F014C072
:1012C0000BF015C00CF012C00DF013C00EF0F5ECD1
:1012D0000AF014C002F015C003F072EC0BF01B50C2
:1012E0000224126E1C500320136E12000600F2A49A
:1012F0007CEF09F07EEF09F0AEEF09F0000175BF59
:101300008AEF09F0755108E17405D8A08AEF09F059
:101310008CEF09F0A8EF09F07451C05DC151800A4B
:10132000016E7551800A0158D8A099EF09F09BEF22
:1013300009F0A6EF09F08C90000E756F000E746F27
:10134000000EC16F010EC06FA8EF09F0C04BC12B9A
:101350003C0ED76EAF0ED66EF294F28AF2A2B3EFC5
:1013600009F0B5EF09F0C0EF09F08C80000E000124
:10137000756F960E746F000EC16F010EC06FF29202
:101380005D921100000E0B6E000E0A6EE2EF09F086
:101390000A500624086E0B500720096E08C0F6FF9D
:1013A00009C0F7FFF86A070EF76403D00800F5508C
:1013B00005D0F6CFE1FFF7CFE2FFE75056EC0BF098
:1013C0000A4A0B2A0A500624086E0B500720096EA1
:1013D00008C0F6FF09C0F7FFF86A070EF76403D0EC
:1013E0000800F55005D0F6CFE1FFF7CFE2FFE75058
:1013F0000009D8A4FEEF09F000EF0AF0C8EF09F0E9
:101400001200000E9EEC0AF01A0E056EF80EE82E81
:10141000FED7052EFCD700D0030E8DEC0BF0070E87
:10142000056E7D0EE82EFED7052EFCD700F0030ECC
:101430008DEC0BF00F0E056E480EE82EFED7052E34
:10144000FCD7030E8DEC0BF0020E8DEC0BF0020EB0
:101450008DEC0BF0080E8DEC0BF0000E8DEC0BF00C
:101460000C0E8DEC0BF0000E8DEC0BF0060E8DECDF
:101470000BF01200066E0604D8A441EF0AF043EF09
:101480000AF054EF0AF005507F0F096E09380F0B70
:10149000076E09500F0B086E07508DEC0BF00850CB
:1014A0008DEC0BF06CEF0AF0020E0618D8A45BEF7F
:1014B0000AF05DEF0AF06CEF0AF00550BF0F096EFD
:1014C00009380F0B076E09500F0B086E07508DEC93
:1014D0000BF008508DEC0BF0120053C0B0F054C06C
:1014E000B1F0000E0001716F000E706F8BEF0AF00B
:1014F00051C041F052C042F0B00E436E000E446E37
:1015000055C045F056C046F087EC05F0415000014B
:10151000702742507123B0C0F6FFB1C0F7FF08003A
:10152000F5500009D8A497EF0AF099EF0AF078EF88
:101530000AF070C051F071C052F01200026E02A0A9
:10154000A4EF0AF0A6EF0AF0A9EF0AF08C88AAEF40
:101550000AF08C9802A2AFEF0AF0B1EF0AF0B4EFF4
:101560000AF08C8AB5EF0AF08C9A02A4BAEF0AF05E
:10157000BCEF0AF0BFEF0AF08C8CC0EF0AF08C9C35
:1015800002A6C5EF0AF0C7EF0AF0CAEF0AF08C8E88
:10159000CBEF0AF08C9E1200B60E0001B86F000E61
:1015A000B96FB2C0BAF0B3C0BBF0000EBD6F000E91
:1015B000BC6F000EBF6F000EBE6FBA0E516E000EF4
:1015C000526EB4C053F0B5C054F0B80E556E000E54
:1015D000566E6DEC0AF00001BC51B225D96EBD51BA
:1015E000B321DA6E000EDF6E1200000E116E000ED7
:1015F000106E06EF0BF00FC002F0036A0DC004F08E
:101600000EC005F04EEC08F0104A112A10500B24C1
:10161000D96E11500C20DA6EDF500F6E0F50D8A427
:1016200014EF0BF016EF0BF0FBEF0AF0120015BEF3
:1016300024EF0BF0155006E11404D8B022EF0BF0A4
:1016400024EF0BF032EF0BF014C016F015C017F0BA
:10165000161E171E164A172A16C014F017C015F0CA
:1016600036EF0BF014C014F015C015F01200560E32
:10167000F66E170EF76E000EF86E0900F5CFC0F08B
:101680000900F5CFC1F000EE60F0500EEE6AE806FA
:10169000FDE15C6A5B6A5A6A596A586A576A5D90EA
:1016A0005D92000EF86E0001D6EF07F0056E055052
:1016B0000F0B036E0550F00B046E8C8404380F0B77
:1016C0009EEC0AF08C860D0EE82EFED700F08C966C
:1016D00003509EEC0AF08C860D0EE82EFED700F02B
:1016E0008C96120002C004F003C005F07AEF0BF0F4
:1016F000024A032A02C0D9FF03C0DAFFDF50D8A490
:1017000084EF0BF086EF0BF078EF0BF00450025CE7
:10171000026E05500358036E1200046E8C94045040
:101720009EEC0AF08C86060E036E300EE82EFED775
:10173000032EFCD700D08C961200D59CD59AD58666
:101740003C0ED76EAF0ED66ED58E1200F28EF2889A
:0A175000F292F19C12000100120059
:020000040020DA
:08000000FFFFFFFFFFFFFFFF00
:020000040030CA
:0E00000000091F1EFF0185FF0FC00FE00F401B
:00000001FF
