:020000040000FA
:0400000007EF00F016
:0A0008005D82F7ED08F057EF0AF0F3
:100800000047657261646F722064652053696E6190
:100810006C00506572696F646F3A20202569206D05
:0308200073000062
:100824001FC037F020C038F021C039F022C03AF0A0
:1008340023C03BF024C03CF025C03DF026C03EF070
:100844003EBE27EF04F02AEF04F0010E2BEF04F074
:10085400000E356E366A35503610D8B434EF04F0D5
:1008640036EF04F046EF04F03E1E3D1E3C1E3B1ED8
:100874003A1E391E381E376C000E382239223A22AD
:100884003B223C223D223E2258BE4BEF04F04DEF6A
:1008940004F04EEF04F0599258BE5BEF04F0585048
:1008A40006E15704D8B059EF04F05BEF04F061EFB0
:1008B40004F0000E326E010E316E65EF04F057C085
:1008C40031F058C032F062C033F063C034F03550B8
:1008D4003610D8A470EF04F072EF04F079EF04F04E
:1008E40059A477EF04F079EF04F07CEF04F03306B9
:1008F400D8A03406000E406E1F0E3F6E000E00019D
:100904008F6F01EF05F03F06D8A04006700E3F241C
:10091400D96E000E4020DA6E37C002F038C003F002
:1009240039C004F03AC005F03BC006F03CC007F003
:100934003DC008F03EC009F00A0E0A6E000E0B6EB0
:10094400000E0C6E000E0D6E000E0E6E000E0F6E7D
:10095400000E106E000E116E1FEC07F002C027F09F
:1009640003C028F004C029F005C02AF006C02BF00B
:1009740007C02CF008C02DF009C02EF027C014F0D9
:1009840029C015F078EC0AF01450300FDF6E3106F0
:10099400D8A032063306D8A0340637C002F038C0D7
:1009A40003F039C004F03AC005F03BC006F03CC087
:1009B40007F03DC008F03EC009F00A0E0A6E000EB2
:1009C4000B6E000E0C6E000E0D6E000E0E6E000E01
:1009D4000F6E000E106E000E116E5BEC06F002C07E
:1009E40037F003C038F004C039F005C03AF006C04F
:1009F4003BF007C03CF008C03DF009C03EF040BEEB
:100A04000CEF05F0405008E13F04D8A00CEF05F0CE
:100A14000EEF05F03EEF05F03750381039103A105C
:100A24003B103C103D103E10D8A41BEF05F01DEF09
:100A340005F085EF04F032BE2AEF05F0325006E1EE
:100A44003104D8B028EF05F02AEF05F085EF04F063
:100A540034BE35EF05F0345008E13304D8A035EF47
:100A640005F037EF05F03EEF05F059B23CEF05F025
:100A74003EEF05F085EF04F035503610D8A445EF6D
:100A840005F047EF05F04EEF05F059A44CEF05F0E3
:100A94004EEF05F06CEF05F03F06D8A04006355048
:100AA4003610D8A458EF05F05AEF05F060EF05F0C2
:100AB400000E306E2B0E2F6E64EF05F0000E306EBC
:100AC4002D0E2F6E700E3F24D96E000E4020DA6E6C
:100AD4002FC0DFFF1DC012F01EC013F0700E3F24A4
:100AE400146E000E4020156E33C016F034C017F09B
:100AF40036EC08F012C01DF013C01EF0120043C003
:100B0400D9FF44C0DAFFDECFF6FFDDCFF7FF0800E0
:100B1400F550250AD8A491EF05F093EF05F03FEFC7
:100B240006F043C0D9FF44C0DAFFDE2A000EDD22FE
:100B3400000E0001636F000E626F62C059F063C063
:100B44005AF05768586843C0D9FF44C0DAFFDECF73
:100B5400F6FFDDCFF7FF0800F550640AD8B4B5EF0F
:100B640005F0B7EF05F0C9EF05F043C0D9FF44C065
:100B7400DAFFDECFF6FFDDCFF7FF0800F550690A94
:100B8400D8A4C7EF05F0C9EF05F009EF06F043C09C
:100B9400D9FF44C0DAFFDE2A000EDD2245C0D9FFAA
:100BA40046C0DAFFDFCF47F0020EDE26DFCF48F083
:100BB400000EDD2247C0D9FF48C0DAFFDECF49F07E
:100BC400DDCF4AF0000E4ABEFF0E4B6E4C6E4D6EEA
:100BD4004E6E4F6E506E41C01DF042C01EF049C0B3
:100BE4001FF04AC020F04BC021F04CC022F04DC091
:100BF40023F04EC024F04FC025F050C026F012EC74
:100C040004F01DC041F01EC042F05AEF06F043C08C
:100C1400D9FF44C0DAFFDECFF6FFDDCFF7FF0800CF
:100C2400F550250AD8A419EF06F01BEF06F032EFB1
:100C340006F043C0D9FF44C0DAFFDE2A000EDD22ED
:100C4400000E036E250E026E41C004F042C005F092
:100C5400D1EC07F0000E426E010E416E5AEF06F021
:100C640043C0D9FF44C0DAFFDE2A000EDD22000EA5
:100C7400426E000E416E5AEF06F043C0D9FF44C0E5
:100C8400DAFFDECFF6FFDDCFF7FF0800F550026E86
:100C9400036A41C004F042C005F0D1EC07F043C040
:100CA400D9FF44C0DAFFDE2A000EDD222CEF06F065
:100CB4001200000E136E11BE64EF06F062EF06F030
:100CC40076EF06F0111E101E0F1E0E1E0D1E0C1EBA
:100CD4000B1E0A6C000E0B220C220D220E220F2278
:100CE40010221122010E136E09BE7DEF06F07BEF78
:100CF40006F08FEF06F0091E081E071E061E051ECD
:100D0400041E031E026C000E032204220522062286
:100D1400072208220922010E131A20EE14F0070EEE
:100D2400DE6AE806FDE20A500B100C100D100E10DE
:100D34000F1010101110D8B4A2EF06F0A4EF06F0B3
:100D4400F6EF06F0010E126EB2EF06F0D8900A36F6
:100D54000B360C360D360E360F3610361136122A77
:100D640011AEB7EF06F0B9EF06F0A8EF06F0D89091
:100D74001436153616361736183619361A361B3603
:100D84000A50025C0B5003580C5004580D5005587F
:100D94000E5006580F500758105008581150095853
:100DA400D8A0D7EF06F0D9EF06F0EAEF06F00A5024
:100DB400025E0B50035A0C50045A0D50055A0E5043
:100DC400065A0F50075A1050085A1150095A1480E5
:100DD400D890113210320F320E320D320C320B32E7
:100DE4000A32122EB9EF06F01350D8B4FCEF06F015
:100DF400FEEF06F00EEF07F01B1E1A1E191E181E3A
:100E0400171E161E151E146C000E1522162217220C
:100E1400182219221A221B2214C002F015C003F052
:100E240016C004F017C005F018C006F019C007F08A
:100E34001AC008F01BC009F01200000E136E09BEA0
:100E440028EF07F026EF07F03AEF07F0091E081E17
:100E5400071E061E051E041E031E026C000E03223E
:100E6400042205220622072208220922010E136EFB
:100E740011BE41EF07F03FEF07F051EF07F0111EED
:100E8400101E0F1E0E1E0D1E0C1E0B1E0A6C000ED5
:100E94000B220C220D220E220F22102211220A50A4
:100EA4000B100C100D100E100F1010101110D8B4E0
:100EB4005EEF07F060EF07F0A8EF07F0010E126E87
:100EC4006EEF07F0D8900A360B360C360D360E3618
:100ED4000F3610361136122A11AE73EF07F075EF84
:100EE40007F064EF07F00A50025C0B5003580C50F3
:100EF40004580D5005580E5006580F5007581050FE
:100F0400085811500958D8A08AEF07F08CEF07F061
:100F14009CEF07F00A50025E0B50035A0C50045A1F
:100F24000D50055A0E50065A0F50075A1050085AC1
:100F34001150095AD890113210320F320E320D323C
:100F44000C320B320A32122E75EF07F01350D8B45C
:100F5400AEEF07F0B0EF07F0C0EF07F0091E081E70
:100F6400071E061E051E041E031E026C000E03222D
:100F740004220522062207220822092202C002F0C6
:100F840003C003F004C004F005C005F006C006F079
:100F940007C007F008C008F009C009F012000450A7
:100FA4000510D8B4D8EF07F0DAEF07F0E3EF07F055
:100FB40004500510D8A4E1EF07F0E3EF07F0E8EFE1
:100FC40007F0025021EC0BF035EF08F020EE04F0AE
:100FD4000450D9260550DA22DE50DE10D8B4F5EFDD
:100FE40007F0F7EF07F012EF08F020EE04F00450DA
:100FF400D9260550DA2210EE02F00450E1260550FD
:10100400E222DE50E65CE650800A0A6EDE50800A78
:101014000A58D8B010EF08F012EF08F035EF08F0D6
:1010240020EE02F00450D9260550DA22DECF06F075
:10103400DDCF07F004C0D9FF05C0DAFFDECF08F02A
:10104400DDCF09F006500824D96E07500920DA6E66
:1010540002C0DFFF20EE02F00450D9260550DA2248
:10106400DE2A000EDD22120059A03BEF08F03DEF0E
:1010740008F047EF08F014C00BF015C00CF012C0D4
:101084000DF013C00EF035EC0AF017BE4CEF08F06B
:101094004EEF08F054EF08F016C01BF017C01CF018
:1010A40058EF08F0000E1C6E000E1B6E000E1A6E38
:1010B400000E196E6AEF08F0000E036E200E026E29
:1010C40012C004F013C005F0D1EC07F0194A1A2A33
:1010D4001B50195C1A50800A186E1C50800A18584C
:1010E400D8A077EF08F079EF08F05EEF08F059B078
:1010F4007EEF08F080EF08F08AEF08F014C00BF0E0
:1011040015C00CF012C00DF013C00EF035EC0AF04F
:1011140014C002F015C003F0D4EC0AF01B500224F2
:10112400126E1C500320136E1200600ED36E000E5C
:10113400956E030E936E070E966EC150F00B0A095E
:10114400C16E41EC09F012EC0BF0A00E0001B26F7D
:10115400000EB36F010EB46F080EB56F0CEC0AF0FD
:10116400010E056E010E7AEC09F0A00E066E000E5B
:10117400076E98EC0AF01BEC0BF000016651641941
:1011840009E167516519D8B4CAEF08F0CCEF08F04B
:10119400BFEF08F0900EB26F000EB36F120EB46F73
:1011A400080EB56F66C002F067C003F0000E056E4E
:1011B400640E046EEFEC0AF002C0B6F003C0B7F0A0
:1011C4000CEC0AF0010E056E020E7AEC09F0900E9A
:1011D400066E000E076E98EC0AF066C064F067C0F5
:1011E40065F0BFEF08F007EF00F00600F2A4FDEF92
:1011F40008F0FFEF08F02DEF09F000016651C05D23
:10120400C151800A016E6751800A0158D8A00DEFC0
:1012140009F00FEF09F025EF09F08CA014EF09F0A5
:1012240018EF09F0016A012A19EF09F0016A8C50DC
:101234000118FE0B01188C6E000E0001C16F010E27
:10124400C06F27EF09F0C04BC12B3C0ED76EAF0E19
:10125400D66EF294F28AF2A232EF09F034EF09F07A
:101264003FEF09F0010E84245B6E5C6A000E5C2281
:101274005BC066F05CC067F0F2925D921100000EF4
:10128400DEEC09F01A0E056EF80EE82EFED7052ED8
:10129400FCD700D0030E02EC0BF0070E056E7D0E9A
:1012A400E82EFED7052EFCD700F0030E02EC0BF05F
:1012B4000F0E056E480EE82EFED7052EFCD7030E42
:1012C40002EC0BF0020E02EC0BF0020E02EC0BF03F
:1012D400080E02EC0BF0000E02EC0BF00C0E02EC0C
:1012E4000BF0000E02EC0BF0060E02EC0BF01200F9
:1012F400066E0604D8A481EF09F083EF09F094EF99
:1013040009F005507F0F096E09380F0B076E09505D
:101314000F0B086E075002EC0BF0085002EC0BF0B8
:10132400ACEF09F0020E0618D8A49BEF09F09DEF6C
:1013340009F0ACEF09F00550BF0F096E09380F0B27
:10134400076E09500F0B086E075002EC0BF00850A3
:1013540002EC0BF0120053C0B0F054C0B1F0000E18
:101364000001616F000E606FCBEF09F051C041F0D6
:1013740052C042F0B00E436E000E446E55C045F0AC
:1013840056C046F081EC05F0415000016027425000
:101394006123B0C0F6FFB1C0F7FF0800F5500009A3
:1013A400D8A4D7EF09F0D9EF09F0B8EF09F060C07D
:1013B40051F061C052F01200026E02A0E4EF09F095
:1013C400E6EF09F0E9EF09F08C88EAEF09F08C9870
:1013D40002A2EFEF09F0F1EF09F0F4EF09F08C8AC3
:1013E400F5EF09F08C9A02A4FAEF09F0FCEF09F08A
:1013F400FFEF09F08C8C00EF0AF08C9C02A605EF3D
:101404000AF007EF0AF00AEF0AF08C8E0BEF0AF0ED
:101414008C9E1200B60E0001B86F000EB96FB2C0F8
:10142400BAF0B3C0BBF0000EBD6F000EBC6F000E6F
:10143400BF6F000EBE6FBA0E516E000E526EB4C076
:1014440053F0B5C054F0B80E556E000E566EADECA8
:1014540009F00001BC51B225D96EBD51B321DA6E39
:10146400000EDF6E1200000E116E000E106E46EFBD
:101474000AF00FC002F0036A0DC004F00EC005F0BC
:10148400D1EC07F0104A112A10500B24D96E1150D8
:101494000C20DA6EDF500F6E0F50D8A454EF0AF010
:1014A40056EF0AF03BEF0AF01200400EF66E160EED
:1014B400F76E000EF86E0900F5CFC0F00900F5CF05
:1014C400C1F000EE60F0500EEE6AE806FDE15C6AE1
:1014D4005B6A5A6A596A586A576A5D905D92000E4F
:1014E400F86E080EF76E000197EF08F015BE85EF51
:1014F4000AF0155006E11404D8B083EF0AF085EF22
:101504000AF093EF0AF014C016F015C017F0161E77
:10151400171E164A172A16C014F017C015F097EFB5
:101524000AF014C014F015C015F01200000E096E74
:10153400000E086EA9EF0AF008500624D96E09506F
:101544000720DA6EDF50B8EC0AF0084A092A08507E
:101554000624D96E09500720DA6EDF50D8A4B5EFFF
:101564000AF0B7EF0AF09EEF0AF01200056E05507C
:101574000F0B036E0550F00B046E8C8404380F0BB4
:10158400DEEC09F08C860D0EE82EFED700F08C966A
:101594000350DEEC09F08C860D0EE82EFED700F029
:1015A4008C96120002C004F003C005F0DCEF0AF0D0
:1015B400024A032A02C0D9FF03C0DAFFDF50D8A4CD
:1015C400E6EF0AF0E8EF0AF0DAEF0AF00450025C02
:1015D400026E05500358036E120002500402F3CF4A
:1015E40006F0F4CF07F002500502F350072603502B
:1015F4000402F350072606C002F007C003F01200ED
:10160400046E8C940450DEEC09F08C86060E036E96
:10161400300EE82EFED7032EFCD700D08C96120095
:10162400D59CD59AD5863C0ED76EAF0ED66ED58E88
:101634001200F28EF288F292F19C12000100120064
:020000040020DA
:08000000FFFFFFFFFFFFFFFF00
:020000040030CA
:0E00000000091F1EFF0185FF0FC00FE00F401B
:00000001FF
