:020000040000FA
:0400000007EF00F016
:0A000800588291ED0DF00AEF11F09F
:1008000000257325753A257325753A257325750DD1
:100810000025753A25753A25750D002054494D453A
:10082000522000300000B7C0D9FFB8C0DAFFDECFD9
:10083000F6FFDDCFF7FF0800F550250AD8A423EF17
:1008400004F025EF04F0FEEF04F0B7C0D9FFB8C004
:10085000DAFFDE2A000EDD22000E0001CE6F000E50
:10086000CD6FCDC0D1F0CEC0D2F0CF69D069B7C0C6
:10087000D9FFB8C0DAFFDECFF6FFDDCFF7FF080003
:10088000F550730AD8A447EF04F049EF04F074EF71
:1008900004F0B7C0D9FFB8C0DAFFDE2A000EDD22AF
:1008A000B9C0D9FFBAC0DAFFDFCFBBF0020EDE2637
:1008B000DFCFBCF0000EDD22BBC0D9FFBCC0DAFF29
:1008C000DECFC7F0DDCFC8F0B5C083F0B6C084F08E
:1008D000C7C085F0C8C086F026EC08F083C0B5F02C
:1008E00084C0B6F01AEF05F0B7C0D9FFB8C0DAFF80
:1008F000DECFF6FFDDCFF7FF0800F550750AD8A46C
:1009000084EF04F086EF04F0C7EF04F0B7C0D9FF1E
:10091000B8C0DAFFDE2A000EDD22B9C0D9FFBAC0A6
:10092000DAFFDFCFBBF0020EDE26DFCFBCF0000E19
:10093000DD22BBC0D9FFBCC0DAFFDECFBDF0DDCF0A
:10094000BEF0BDC0BFF0BEC0C0F0C16BC26BC36B18
:10095000C46BC56BC66BB5C095F0B6C096F0BFC092
:1009600097F0C0C098F0C1C099F0C2C09AF0C3C05F
:100970009BF0C4C09CF0C5C09DF0C6C09EF021ECA9
:1009800006F095C0B5F096C0B6F01AEF05F0B7C006
:10099000D9FFB8C0DAFFDECFF6FFDDCFF7FF0800E2
:1009A000F550250AD8A4D7EF04F0D9EF04F0F1EF01
:1009B00004F0B7C0D9FFB8C0DAFFDE2A000EDD228E
:1009C000000E7B6F250E7A6FB5C07CF0B6C07DF04F
:1009D000FEEC0BF0000E0001B66F010EB56F1AEFC2
:1009E00005F0B7C0D9FFB8C0DAFFDE2A000EDD225D
:1009F000000EB66F000EB56F1AEF05F0B7C0D9FF45
:100A0000B8C0DAFFDECFF6FFDDCFF7FF0800F55004
:100A100000017A6F7B6BB5C07CF0B6C07DF0FEEC58
:100A20000BF0B7C0D9FFB8C0DAFFDE2A000EDD2216
:100A3000EAEF04F012003EC0D9FF3FC0DAFFDECF7C
:100A4000F6FFDDCFF7FF0800F550250AD8A42BEFFD
:100A500005F02DEF05F005EF06F03EC0D9FF3FC0D1
:100A6000DAFFDE2A000EDD22000E0001CE6F000E3E
:100A7000CD6FCDC0D1F0CEC0D2F0CF69D0693EC02D
:100A8000D9FF3FC0DAFFDECFF6FFDDCFF7FF08006A
:100A9000F550730AD8A44FEF05F051EF05F07CEF45
:100AA00005F03EC0D9FF3FC0DAFFDE2A000EDD228E
:100AB00040C0D9FF41C0DAFFDFCF42F0020EDE2690
:100AC000DFCF43F0000EDD2242C0D9FF43C0DAFF82
:100AD000DECF4EF0DDCF4FF03CC00AF03DC00BF052
:100AE0004EC00CF04FC00DF0F8EC08F00AC03CF01E
:100AF0000BC03DF020EF06F03EC0D9FF3FC0DAFF4B
:100B0000DECFF6FFDDCFF7FF0800F550750AD8A459
:100B10008CEF05F08EEF05F0CFEF05F03EC0D9FF6A
:100B20003FC0DAFFDE2A000EDD2240C0D9FF41C0FF
:100B3000DAFFDFCF42F0020EDE26DFCF43F0000EF9
:100B4000DD2242C0D9FF43C0DAFFDECF44F0DDCF63
:100B500045F044C046F045C047F0486A496A4A6AD1
:100B60004B6A4C6A4D6A3CC01CF03DC01DF046C04B
:100B70001EF047C01FF048C020F049C021F04AC015
:100B800022F04BC023F04CC024F04DC025F024ECE3
:100B900007F01CC03CF01DC03DF020EF06F03EC049
:100BA000D9FF3FC0DAFFDECFF6FFDDCFF7FF080049
:100BB000F550250AD8A4DFEF05F0E1EF05F0F8EFD6
:100BC00005F03EC0D9FF3FC0DAFFDE2A000EDD226D
:100BD000000E026E250E016E3CC003F03DC004F015
:100BE000C9EC0CF0000E3D6E010E3C6E20EF06F0DD
:100BF0003EC0D9FF3FC0DAFFDE2A000EDD22000E24
:100C00003D6E000E3C6E20EF06F03EC0D9FF3FC0A7
:100C1000DAFFDECFF6FFDDCFF7FF0800F550016EFB
:100C2000026A3CC003F03DC004F0C9EC0CF03EC0C9
:100C3000D9FF3FC0DAFFDE2A000EDD22F2EF05F019
:100C400012000001D0BF27EF06F029EF06F02AEFCF
:100C500006F0D193D0BF37EF06F0D05106E1CF05B3
:100C6000D8B035EF06F037EF06F03DEF06F0000E96
:100C7000A86F010EA76F41EF06F0CFC0A7F0D0C05C
:100C8000A8F0CDC0A9F0CEC0AAF097C0ABF098C034
:100C9000ACF099C0ADF09AC0AEF09BC0AFF09CC074
:100CA000B0F09DC0B1F09EC0B2F0000EB46F1F0E48
:100CB000B36F000E01011F6FD5EF06F0B307D8A088
:100CC000B407000EB325D96E010EB421DA6EABC0A5
:100CD0007AF0ACC07BF0ADC07CF0AEC07DF0AFC0B0
:100CE0007EF0B0C07FF0B1C080F0B2C081F00A0EDB
:100CF000826F000E836F000E846F000E856F000EF2
:100D0000866F000E876F000E886F000E896F2DECC6
:100D10000BF07AC09FF07BC0A0F07CC0A1F07DC03A
:100D2000A2F07EC0A3F07FC0A4F080C0A5F081C077
:100D3000A6F000019F51300FDF6EA707D8A0A807CB
:100D4000A907D8A0AA07ABC07AF0ACC07BF0ADC0B1
:100D50007CF0AEC07DF0AFC07EF0B0C07FF0B1C01F
:100D600080F0B2C081F00A0E826F000E836F000E19
:100D7000846F000E856F000E866F000E876F000E69
:100D8000886F000E896FC6EC09F07AC0ABF07BC0AB
:100D9000ACF07CC0ADF07DC0AEF07EC0AFF07FC0E7
:100DA000B0F080C0B1F081C0B2F00001B351B41115
:100DB000D8B4DDEF06F0DFEF06F00FEF07F0AB5130
:100DC000AC11AD11AE11AF11B011B111B211D8A467
:100DD000ECEF06F0EEEF06F05EEF06F0A8BFFBEFDB
:100DE00006F0A85106E1A705D8B0F9EF06F0FBEF31
:100DF00006F05EEF06F0AABF06EF07F0AA5108E181
:100E0000A905D8A006EF07F008EF07F00FEF07F0ED
:100E1000D1B30DEF07F00FEF07F05EEF06F095C0CE
:100E20008AF096C08BF0000EB3258C6F010EB421B2
:100E30008D6FA9C08EF0AAC08FF064EC0CF08AC050
:100E400095F08BC096F012000001D0BF2AEF07F09A
:100E50002CEF07F02DEF07F0D193D0BF3AEF07F05A
:100E6000D05106E1CF05D8B038EF07F03AEF07F0E0
:100E700040EF07F0000E2F6E010E2E6E44EF07F0CC
:100E8000CFC02EF0D0C02FF0CDC030F0CEC031F0AA
:100E90001EC032F01FC033F020C034F021C035F046
:100EA00022C036F023C037F024C038F025C039F016
:100EB000000E3B6E1F0E3A6E000E01011F6FD7EF42
:100EC00007F03A06D8A03B06000E3A24D96E010E70
:100ED0003B20DA6E32C001F033C002F034C003F0C0
:100EE00035C004F036C005F037C006F038C007F052
:100EF00039C008F00A0E096E000E0A6E000E0B6E65
:100F0000000E0C6E000E0D6E000E0E6E000E0F6EBB
:100F1000000E106E96EC0BF001C026F002C027F018
:100F200003C028F004C029F005C02AF006C02BF049
:100F300007C02CF008C02DF02650300FDF6E2E06B3
:100F4000D8A02F063006D8A0310632C001F033C039
:100F500002F034C003F035C004F036C005F037C0ED
:100F600006F038C007F039C008F00A0E096E000E0E
:100F70000A6E000E0B6E000E0C6E000E0D6E000E53
:100F80000E6E000E0F6E000E106E3FEC0AF001C0E8
:100F900032F002C033F003C034F004C035F005C0B5
:100FA00036F006C037F007C038F008C039F03A50C4
:100FB0003B10D8B4DEEF07F0E0EF07F011EF08F0D8
:100FC00032503310341035103610371038103910B5
:100FD000D8A4EDEF07F0EFEF07F061EF07F02FBEB9
:100FE000FCEF07F02F5006E12E04D8B0FAEF07F01F
:100FF000FCEF07F061EF07F031BE07EF08F031506A
:1010000008E13004D8A007EF08F009EF08F011EF6D
:1010100008F00001D1B30FEF08F011EF08F061EF15
:1010200007F01CC011F01DC012F0000E3A24136E20
:10103000010E3B20146E30C015F031C016F02EECBE
:101040000DF011C01CF012C01DF0120020EEDFF0F8
:1010500010EE88F0060EDBCFE3FFE806FCE285C069
:1010600093F086C094F0000193519411D8A43BEF03
:1010700008F03DEF08F041EF08F0880E936F000E86
:10108000946F93C07AF094C07BF06DEC10F07AC04E
:1010900097F07BC098F0CFC095F0D0C096F00001DB
:1010A00096BF55EF08F057EF08F06CEF08F0975136
:1010B000955D9651800A876F9851800A8759D8A00C
:1010C00064EF08F066EF08F068EF08F06CEF08F0E6
:1010D00095C097F096C098F097C095F098C096F09C
:1010E000CDC091F0CEC092F0D1B179EF08F07BEF96
:1010F00008F099EF08F08AEF08F0000E7B6F200EE1
:101100007A6F83C07CF084C07DF0FEEC0BF00001B0
:10111000974B982B9151975D9851800A876F925108
:10112000800A8759D8A097EF08F099EF08F07DEF73
:1011300008F0000E906F000E8F6FBFEF08F093C0A5
:10114000F6FF94C0F7FFF86A070EF76403D00800B3
:10115000F55005D0F6CFE1FFF7CFE2FFE7500001F1
:10116000876F87517A6F7B6B83C07CF084C07DF082
:10117000FEEC0BF00001934B942B8F4B902B955171
:101180008F5D9051800A876F9651800A8759D8A049
:10119000CCEF08F0CEEF08F09FEF08F0D1A1D3EF2D
:1011A00008F0D5EF08F0F3EF08F0E4EF08F0000ED8
:1011B0007B6F200E7A6F83C07CF084C07DF0FEECE4
:1011C0000BF00001974B982B9151975D9851800A35
:1011D000876F9251800A8759D8A0F1EF08F0F3EF9A
:1011E00008F0D7EF08F097C083F098C084F01200A1
:1011F00020EEDFF010EE0FF0060EDBCFE3FFE80687
:10120000FCE20CC01AF00DC01BF01A501B10D8A441
:101210000CEF09F00EEF09F012EF09F00F0E1A6E45
:10122000000E1B6E1AC001F01BC002F0BFEC10F0E4
:1012300001C01EF002C01FF0CFC01CF0D0C01DF0D6
:101240001DBE25EF09F027EF09F03CEF09F01E5015
:101250001C5C1D50800A0E6E1F50800A0E58D8A0CC
:1012600034EF09F036EF09F038EF09F03CEF09F000
:101270001CC01EF01DC01FF01EC01CF01FC01DF0C2
:10128000CDC018F0CEC019F00001D1B14AEF09F07D
:101290004CEF09F069EF09F05AEF09F0000E026E09
:1012A000200E016E0AC003F00BC004F0C9EC0CF074
:1012B0001E4A1F2A18501E5C1F50800A0E6E1950BD
:1012C000800A0E58D8A067EF09F069EF09F04EEFD9
:1012D00009F0000E176E000E166E8DEF09F01AC0A1
:1012E000F6FF1BC0F7FFF86A070EF76403D008008B
:1012F000F55005D0F6CFE1FFF7CFE2FFE7500E6ED5
:101300000E50016E026A0AC003F00BC004F0C9EC73
:101310000CF01A4A1B2A164A172A1C50165C175042
:10132000800A0E6E1D50800A0E58D8A09AEF09F060
:101330009CEF09F06FEF09F00001D1A1A2EF09F0D5
:10134000A4EF09F0C1EF09F0B2EF09F0000E026E50
:10135000200E016E0AC003F00BC004F0C9EC0CF0C3
:101360001E4A1F2A18501E5C1F50800A0E6E19500C
:10137000800A0E58D8A0BFEF09F0C1EF09F0A6EF20
:1013800009F01EC00AF01FC00BF0120020EE8AF018
:10139000070EDE6AE806FDE2000182518311841126
:1013A00085118611871188118911D8B4DAEF09F0F7
:1013B000DCEF09F02EEF0AF0010E926FEAEF09F070
:1013C000D890823783378437853786378737883791
:1013D0008937922B89AFEFEF09F0F1EF09F0E0EFD9
:1013E00009F0D8908A378B378C378D378E378F3707
:1013F0009037913782517A5D83517B5984517C5962
:1014000085517D5986517E5987517F598851805920
:1014100089518159D8A00FEF0AF011EF0AF022EF9D
:101420000AF082517A5F83517B5B84517C5B8551EA
:101430007D5B86517E5B87517F5B8851805B8951E4
:10144000815B8A81D89089338833873386338533AB
:10145000843383338233922FF1EF09F08AC07AF01C
:101460008BC07BF08CC07CF08DC07DF08EC07EF098
:101470008FC07FF090C080F091C081F0120020EE0C
:1014800011F0070EDE6AE806FDE209500A100B10A3
:101490000C100D100E100F101010D8B452EF0AF0EF
:1014A00054EF0AF0A6EF0AF0010E196E62EF0AF08F
:1014B000D89009360A360B360C360D360E360F36F6
:1014C0001036192A10AE67EF0AF069EF0AF058EFEC
:1014D0000AF0D890113612361336143615361636F1
:1014E000173618360950015C0A5002580B50035841
:1014F0000C5004580D5005580E5006580F50075800
:1015000010500858D8A087EF0AF089EF0AF09AEF38
:101510000AF00950015E0A50025A0B50035A0C504F
:10152000045A0D50055A0E50065A0F50075A1050C3
:10153000085A1180D89010320F320E320D320C3210
:101540000B320A320932192E69EF0AF011C001F08C
:1015500012C002F013C003F014C004F015C005F06F
:1015600016C006F017C007F018C008F0120058ECBB
:101570000FF01A0E0001D36F080ED46FD3C0D5F050
:10158000D4C0D6F0D5C0D7F0D6C0D8F0DEBFD4EFE7
:101590000AF0DE5107E10A0EDD5DD8B0D2EF0AF0A5
:1015A000D4EF0AF0D8EF0AF0230ED76F080ED86FE9
:1015B000DCBFE6EF0AF0DC5107E10A0EDB5DD8B0D4
:1015C000E4EF0AF0E6EF0AF0EAEF0AF0230ED56F37
:1015D000080ED66FDABFF8EF0AF0DA5107E10A0E0B
:1015E000D95DD8B0F6EF0AF0F8EF0AF0FCEF0AF098
:1015F000230ED36F080ED46F200E0101446F010E2D
:10160000456F010E466F080E476FD7C048F1D8C02E
:1016100049F1DDC04AF1DEC04BF1D5C04CF1D6C076
:101620004DF1DBC04EF1DCC04FF1D3C050F1D4C05E
:1016300051F1D9C052F1DAC053F144EC10F0010E6F
:1016400000017C6F010E59EC0EF0200E00017E6F40
:10165000010E7F6FD8EC0DF0120000018251831152
:10166000841185118611871188118911D8B43BEF37
:101670000BF03DEF0BF085EF0BF0010E8A6F4BEF97
:101680000BF0D89082378337843785378637873792
:10169000883789378A2B89AF50EF0BF052EF0BF068
:1016A00041EF0BF082517A5D83517B5984517C5913
:1016B00085517D5986517E5987517F59885180596E
:1016C00089518159D8A067EF0BF069EF0BF079EFE2
:1016D0000BF082517A5F83517B5B84517C5B855137
:1016E0007D5B86517E5B87517F5B8851805B895132
:1016F000815BD8908933883387338633853384334D
:10170000833382338A2F52EF0BF07AC07AF07BC09A
:101710007BF07CC07CF07DC07DF07EC07EF07FC021
:101720007FF080C080F081C081F0120009500A1063
:101730000B100C100D100E100F101010D8B4A3EFDA
:101740000BF0A5EF0BF0EDEF0BF0010E116EB3EF08
:101750000BF0D89009360A360B360C360D360E369D
:101760000F361036112A10AEB8EF0BF0BAEF0BF0AF
:10177000A9EF0BF00950015C0A5002580B500358B6
:101780000C5004580D5005580E5006580F5007586D
:1017900010500858D8A0CFEF0BF0D1EF0BF0E1EFCD
:1017A0000BF00950015E0A50025A0B50035A0C50BC
:1017B000045A0D50055A0E50065A0F50075A105031
:1017C000085AD89010320F320E320D320C320B32D2
:1017D0000A320932112EBAEF0BF001C001F002C03B
:1017E00002F003C003F004C004F005C005F006C019
:1017F00006F007C007F008C008F0120000017C5195
:101800007D11D8B406EF0CF008EF0CF011EF0CF0DE
:101810007C517D11D8A40FEF0CF011EF0CF016EFF6
:101820000CF07A51B5EC11F063EF0CF020EE04F0FF
:101830007C51D9267D51DA22DE50DE10D8B423EF58
:101840000CF025EF0CF040EF0CF020EE04F07C5192
:10185000D9267D51DA2210EE02F07C51E1267D512D
:10186000E222DE50E65CE650800A826FDE50800A9B
:101870008259D8B03EEF0CF040EF0CF063EF0CF063
:1018800020EE02F07C51D9267D51DA22DECF7EF0A7
:10189000DDCF7FF07CC0D9FF7DC0DAFFDECF80F0E6
:1018A000DDCF81F07E518025D96E7F518121DA6EA6
:1018B0007AC0DFFF20EE02F07C51D9267D51DA227A
:1018C000DE2A000EDD2212000001D1A16AEF0CF029
:1018D0006CEF0CF076EF0CF08CC083F08DC084F0D0
:1018E0008AC085F08BC086F0E6EC10F000018FBF57
:1018F0007CEF0CF07EEF0CF084EF0CF08EC093F0D8
:101900008FC094F088EF0CF0000E946F000E936F70
:10191000000E926F000E916F9BEF0CF0000E7B6F2C
:10192000200E7A6F8AC07CF08BC07DF0FEEC0BF04D
:101930000001914B922B9351915D9251800A906FCF
:101940009451800A9059D8A0A8EF0CF0AAEF0CF09F
:101950008EEF0CF0D1B1AFEF0CF0B1EF0CF0BBEFAC
:101960000CF08CC083F08DC084F08AC085F08BC0F1
:1019700086F0E6EC10F08CC07AF08DC07BF06DEC58
:1019800010F0000193517A258A6F94517B218B6F5F
:10199000120003500410D8B4D0EF0CF0D2EF0CF0CA
:1019A000DBEF0CF003500410D8A4D9EF0CF0DBEF00
:1019B0000CF0E0EF0CF00150B6EC11F02DEF0DF053
:1019C00020EE04F00350D9260450DA22DE50DE1057
:1019D000D8B4EDEF0CF0EFEF0CF00AEF0DF020EEC5
:1019E00004F00350D9260450DA2210EE02F003501E
:1019F000E1260450E222DE50E65CE650800A096EE1
:101A0000DE50800A0958D8B008EF0DF00AEF0DF04B
:101A10002DEF0DF020EE02F00350D9260450DA220B
:101A2000DECF05F0DDCF06F003C0D9FF04C0DAFF3A
:101A3000DECF07F0DDCF08F005500724D96E065041
:101A40000820DA6E01C0DFFF20EE02F00350D92635
:101A50000450DA22DE2A000EDD2212000001D1A19C
:101A600034EF0DF036EF0DF040EF0DF013C00AF03B
:101A700014C00BF011C00CF012C00DF02DEC11F0E1
:101A800016BE45EF0DF047EF0DF04DEF0DF015C010
:101A90001AF016C01BF051EF0DF0000E1B6E000E79
:101AA0001A6E000E196E000E186E63EF0DF0000E28
:101AB000026E200E016E11C003F012C004F0C9ECDA
:101AC0000CF0184A192A1A50185C1950800A176E1F
:101AD0001B50800A1758D8A070EF0DF072EF0DF070
:101AE00057EF0DF00001D1B178EF0DF07AEF0DF066
:101AF00084EF0DF013C00AF014C00BF011C00CF00D
:101B000012C00DF02DEC11F013C001F014C002F062
:101B1000BFEC10F01A500124116E1B500220126EFF
:101B200012000600E1CF72F0E2CF73F0D9CF74F06B
:101B3000DACF75F0F6CF76F0F7CF77F0F8CF78F010
:101B4000F5CF79F0B8EC0FF0200E0001606F010EB8
:101B5000616F110E626F080E636FDDC064F0DEC04E
:101B600065F0DBC066F0DCC067F0D9C068F0DAC0B1
:101B700069F096EC10F0010E036E010EC3EC0EF04E
:101B8000200E056E010E066E1AEC0EF079C0F5FF00
:101B900078C0F8FF77C0F7FF76C0F6FF75C0DAFFB0
:101BA00074C0D9FF73C0E2FF72C0E1FF5892110008
:101BB000000E0001836F000E826FFBEF0DF000013D
:101BC00082517E25806F83517F21816F80C0F6FF17
:101BD00081C0F7FFF86A070EF76403D00800F550DC
:101BE00005D0F6CFE1FFF7CFE2FFE7504FEC11F061
:101BF0000001824B832B82517E25806F83517F2190
:101C0000816F80C0F6FF81C0F7FFF86A070EF764A6
:101C100003D00800F55005D0F6CFE1FFF7CFE2FF83
:101C2000E7500009D8A417EF0EF019EF0EF0DFEF20
:101C30000DF01200000E0A6E000E096E3AEF0EF063
:101C400009500524076E0A500620086E07C0F6FFEB
:101C500008C0F7FFF86A070EF76403D00800F550D4
:101C600005D0F6CFE1FFF7CFE2FFE7506AEC11F0C5
:101C7000094A0A2A09500524076E0A500620086EF0
:101C800007C0F6FF08C0F7FFF86A070EF76403D035
:101C90000800F55005D0F6CFE1FFF7CFE2FFE7509F
:101CA0000009D8A456EF0EF058EF0EF020EF0EF01A
:101CB000120000017D6F00017D05D8A462EF0EF0D7
:101CC00064EF0EF076EF0EF07C517F0F806F80395D
:101CD0000F0B7E6F80510F0B7F6F7E5182EC11F0E6
:101CE00000017F5182EC11F08FEF0EF0020E7D1992
:101CF000D8A47DEF0EF07FEF0EF08FEF0EF07C5149
:101D0000BF0F806F80390F0B7E6F80510F0B7F6F7D
:101D10007E5182EC11F000017F5182EC11F0120033
:101D2000000E88EC0FF0030E00017C6F970EE82E7A
:101D3000FED77C2FFCD700D0030E82EC11F0A60E4C
:101D4000E82EFED700D0030E82EC11F0DC0E00D09E
:101D5000E82EFDD7030E82EC11F0020E82EC11F09A
:101D6000020E82EC11F0080E82EC11F0000E82ECF3
:101D700011F00C0E82EC11F0000E82EC11F0060E48
:101D800082EC11F01200046E0404D8A4CAEF0EF025
:101D9000CCEF0EF0DDEF0EF003507F0F076E07382B
:101DA0000F0B056E07500F0B066E055090EC11F0EF
:101DB000065090EC11F0F5EF0EF0020E0418D8A4C6
:101DC000E4EF0EF0E6EF0EF0F5EF0EF00350BF0F6C
:101DD000076E07380F0B056E07500F0B066E055088
:101DE00090EC11F0065090EC11F0120040C1C9F0D7
:101DF00041C1CAF0000E0001CC6F000ECB6F14EF92
:101E00000FF03EC1B5F03FC1B6F0C90EB76F000E7E
:101E1000B86F42C1B9F043C1BAF013EC04F000014D
:101E2000B551CB27B651CC23C9C0F6FFCAC0F7FFC6
:101E30000800F5500009D8A420EF0FF022EF0FF0B2
:101E400001EF0FF0CBC03EF1CCC03FF1120052C009
:101E500056F053C057F0000E0001CC6F000ECB6F50
:101E600045EF0FF050C03CF051C03DF0560E3E6EB5
:101E7000000E3F6E54C040F055C041F01BEC05F021
:101E80003C500001CB273D50CC2356C0F6FF57C035
:101E9000F7FF0800F5500009D8A451EF0FF053EFF9
:101EA0000FF032EF0FF0CBC050F0CCC051F0120069
:101EB000010E0001D925D96F000EDA21DA6F3C0E30
:101EC000D919DA11D8A467EF0FF069EF0FF073EFAB
:101ED0000FF0000EDA6F000ED96F010EDB25DB6FFD
:101EE000000EDC21DC6F3C0EDB19DC11D8A47BEF8B
:101EF0000FF07DEF0FF087EF0FF0000EDC6F000E9C
:101F0000DB6F010EDD25DD6F000EDE21DE6F1200BE
:101F100000017A6F00017AA190EF0FF092EF0FF0BD
:101F200095EF0FF08C8896EF0FF08C987AA39BEFCB
:101F30000FF09DEF0FF0A0EF0FF08C8AA1EF0FF0E4
:101F40008C9A7AA5A6EF0FF0A8EF0FF0ABEF0FF089
:101F50008C8CACEF0FF08C9C7AA7B1EF0FF0B3EF45
:101F60000FF0B6EF0FF08C8EB7EF0FF08C9E1200D3
:101F7000010E0001D925D96F000EDA21DA6F3C0E6F
:101F8000D919DA11D8A4C7EF0FF0C9EF0FF0D3EFCA
:101F90000FF0000EDA6F000ED96F010EDB25DB6F3C
:101FA000000EDC21DC6F3C0EDB19DC11D8A4DBEF6A
:101FB0000FF0DDEF0FF0E7EF0FF0000EDC6F000E1B
:101FC000DB6F010EDD25DD6F000EDE21DE6F1200FE
:101FD000000E956E000E966E600ED36E948C948EED
:101FE0009CEC11F0ADEC11F090EC0EF0A6EC11F0C1
:101FF000010E00017C6F010E59EC0EF01B0E00016A
:102000007E6F080E7F6FD8EC0DF0820E01015C6FC1
:10201000DD0EE82EFED75C2FFCD700D0A6EC11F029
:10202000B7EC0AF010EF10F007EF00F0016E01A01E
:102030001CEF10F01EEF10F021EF10F08C8822EF53
:1020400010F08C9801A227EF10F029EF10F02CEF80
:1020500010F08C8A2DEF10F08C9A01A432EF10F062
:1020600034EF10F037EF10F08C8C38EF10F08C9CC0
:1020700001A63DEF10F03FEF10F042EF10F08C8E14
:1020800043EF10F08C9E1200480E0101546F010EB8
:10209000556F44C156F145C157F1000E596F000EFE
:1020A000586F000E5B6F000E5A6F560E3E6F010E9A
:1020B0003F6F46C140F147C141F1540E426F010EDE
:1020C000436FF6EC0EF0010158514425D96E595179
:1020D0004521DA6E000EDF6E12007AC07CF07BC004
:1020E0007DF076EF10F000017A4B7B2B7AC0F6FF83
:1020F0007BC0F7FFF86A070EF76403D00800F550BD
:1021000005D0F6CFE1FFF7CFE2FFE7500009D8A4F2
:102110008CEF10F08EEF10F073EF10F000017C5197
:102120007A5D7A6F7D517B597B6F1200640E0001DE
:102130006A6F000E6B6F60C06CF061C06DF0000ED6
:102140006F6F000E6E6F000E716F000E706F6C0E71
:10215000506E000E516E62C052F063C053F06A0EB2
:10216000546E000E556E27EC0FF000016E51602585
:10217000D96E6F516121DA6E000EDF6E120001C060
:1021800003F002C004F0C7EF10F0014A022A01C0B8
:10219000F6FF02C0F7FFF86A070EF76403D00800E5
:1021A000F55005D0F6CFE1FFF7CFE2FFE750000989
:1021B000D8A4DDEF10F0DFEF10F0C5EF10F0035002
:1021C000015C016E04500258026E1200000E000104
:1021D000896F000E886FF9EF10F087C07AF07B6B83
:1021E00085C07CF086C07DF0FEEC0BF00001884BD2
:1021F000892B88518325D96E89518421DA6EDF506D
:10220000876F8751D8A407EF11F009EF11F0EDEFB8
:1022100010F01200620EF66E230EF76E000EF86ECE
:1022200000EEDFF010EE07F00900F5CFEEFFE5500D
:10223000E150FAE101EE00F03E0EEE6AE806FDE143
:1022400000EECBF0140EEE6AE806FDE158905892CD
:10225000000EF86E0001E8EF0FF0000E106E000E99
:102260000F6E3EEF11F00EC001F0026A0CC003F0D9
:102270000DC004F0C9EC0CF00F4A102A0F500A24CC
:10228000D96E10500B20DA6EDF500E6E0E50D8A4AF
:102290004CEF11F04EEF11F033EF11F0120000018E
:1022A0007D6F00017D510F0B7B6F7D51F00B7C6FBB
:1022B0008D807C390F0B88EC0FF08D8200D000D020
:1022C0008D9200017B5188EC0FF08D8200D000D000
:1022D0008D921200046E04500F0B026E0450F00B2E
:1022E000036E8D8003380F0B16EC10F08D8200D03A
:1022F00000D08D92025016EC10F08D8200D000D0EC
:102300008D92120000017B6F8D9000017B5188EC53
:102310000FF08D82850EE82EFED700F08D92120010
:10232000026E8D90025016EC10F08D82850EE82E14
:10233000FED700F08D921200AC8AAC98AC84AB8EC4
:10234000AB88000EB86E190EAF6E1200000E82EC54
:1023500011F0010E82EC11F01200F28EF28C9D8AC7
:092360001200286E756C6C290056
:04236A00120012004B
:020000040020DA
:08000000FFFFFFFFFFFFFFFF00
:020000040030CA
:0E00000000091F1EFF0385FF0FC00FE00F4019
:00000001FF
