:0400000007EF00F016
:0A0008005E8201ED09F014EF0BF029
:100800000020202020257325753A257325753A256B
:100810007325752020202000202020202054494DC1
:100820004552202020202020003000003EC0D9FF6B
:100830003FC0DAFFDECFF6FFDDCFF7FF0800F5504F
:10084000250AD8A426EF04F028EF04F000EF05F005
:100850003EC0D9FF3FC0DAFFDE2A000EDD22000EC7
:100860000001636F000E626F62C05CF063C05DF0F8
:10087000646965693EC0D9FF3FC0DAFFDECFF6FF8D
:10088000DDCFF7FF0800F550730AD8A44AEF04F053
:100890004CEF04F077EF04F03EC0D9FF3FC0DAFF21
:1008A000DE2A000EDD2240C0D9FF41C0DAFFDFCFD3
:1008B00042F0020EDE26DFCF43F0000EDD2242C002
:1008C000D9FF43C0DAFFDECF4EF0DDCF4FF03CC0A2
:1008D0000AF03DC00BF04EC00CF04FC00DF01CEC08
:1008E00006F00AC03CF00BC03DF01BEF05F03EC027
:1008F000D9FF3FC0DAFFDECFF6FFDDCFF7FF0800FC
:10090000F550750AD8A487EF04F089EF04F0CAEF18
:1009100004F03EC0D9FF3FC0DAFFDE2A000EDD2220
:1009200040C0D9FF41C0DAFFDFCF42F0020EDE2621
:10093000DFCF43F0000EDD2242C0D9FF43C0DAFF13
:10094000DECF44F0DDCF45F044C046F045C047F06F
:10095000486A496A4A6A4B6A4C6A4D6A3CC01CF054
:100960003DC01DF046C01EF047C01FF048C020F03B
:1009700049C021F04AC022F04BC023F04CC024F003
:100980004DC025F01CEC05F01CC03CF01DC03DF036
:100990001BEF05F03EC0D9FF3FC0DAFFDECFF6FF08
:1009A000DDCFF7FF0800F550250AD8A4DAEF04F0F0
:1009B000DCEF04F0F3EF04F03EC0D9FF3FC0DAFFF4
:1009C000DE2A000EDD22000E026E250E016E3CC0F6
:1009D00003F03DC004F03BEC08F0000E3D6E010E4C
:1009E0003C6E1BEF05F03EC0D9FF3FC0DAFFDE2AA8
:1009F000000EDD22000E3D6E000E3C6E1BEF05F07A
:100A00003EC0D9FF3FC0DAFFDECFF6FFDDCFF7FFF4
:100A10000800F550016E026A3CC003F03DC004F0CE
:100A20003BEC08F03EC0D9FF3FC0DAFFDE2A000EE3
:100A3000DD22EDEF04F01200000165BF22EF05F0AA
:100A400024EF05F025EF05F05C9265BF32EF05F06D
:100A5000655106E16405D8B030EF05F032EF05F0DE
:100A600038EF05F0000E2F6E010E2E6E3CEF05F0F4
:100A700064C02EF065C02FF062C030F063C031F06A
:100A80001EC032F01FC033F020C034F021C035F05A
:100A900022C036F023C037F024C038F025C039F02A
:100AA000000E3B6E1F0E3A6E000E8F6FCEEF05F0FC
:100AB0003A06D8A03B06700E3A24D96E000E3B20B1
:100AC000DA6E32C001F033C002F034C003F035C03A
:100AD00004F036C005F037C006F038C007F039C062
:100AE00008F00A0E096E000E0A6E000E0B6E000E64
:100AF0000C6E000E0D6E000E0E6E000E0F6E000ED0
:100B0000106ED3EC07F001C026F002C027F003C03E
:100B100028F004C029F005C02AF006C02BF007C059
:100B20002CF008C02DF02650300FDF6E2E06D8A016
:100B30002F063006D8A0310632C001F033C002F0D3
:100B400034C003F035C004F036C005F037C006F0FD
:100B500038C007F039C008F00A0E096E000E0A6EA0
:100B6000000E0B6E000E0C6E000E0D6E000E0E6E63
:100B7000000E0F6E000E106EE8EC06F001C032F0B1
:100B800002C033F003C034F004C035F005C036F0C5
:100B900006C037F007C038F008C039F03A503B10B3
:100BA000D8B4D5EF05F0D7EF05F007EF06F03250D7
:100BB0003310341035103610371038103910D8A4CF
:100BC000E4EF05F0E6EF05F058EF05F02FBEF3EF88
:100BD00005F02F5006E12E04D8B0F1EF05F0F3EF49
:100BE00005F058EF05F031BEFEEF05F0315008E199
:100BF0003004D8A0FEEF05F000EF06F007EF06F096
:100C00005CB205EF06F007EF06F058EF05F01CC0E8
:100C100011F01DC012F0700E3A24136E000E3B202E
:100C2000146E30C015F031C016F0A0EC08F011C001
:100C30001CF012C01DF0120020EECEF010EE0FF0EE
:100C4000060EDBCFE3FFE806FCE20CC01AF00DC095
:100C50001BF01A501B10D8A430EF06F032EF06F04C
:100C600036EF06F00F0E1A6E000E1B6E1AC001F062
:100C70001BC002F09AEC0BF001C01EF002C01FF086
:100C800064C01CF065C01DF01DBE49EF06F04BEFBF
:100C900006F060EF06F01E501C5C1D50800A0E6EC0
:100CA0001F50800A0E58D8A058EF06F05AEF06F0F1
:100CB0005CEF06F060EF06F01CC01EF01DC01FF0D8
:100CC0001EC01CF01FC01DF062C018F063C019F0F8
:100CD0005CB06DEF06F06FEF06F08CEF06F07DEF85
:100CE00006F0000E026E200E016E0AC003F00BC06B
:100CF00004F03BEC08F01E4A1F2A18501E5C1F50DF
:100D0000800A0E6E1950800A0E58D8A08AEF06F09D
:100D10008CEF06F071EF06F0000E176E000E166EE7
:100D2000B0EF06F01AC0F6FF1BC0F7FFF86A070E17
:100D3000F76403D00800F55005D0F6CFE1FFF7CFF8
:100D4000E2FFE7500E6E0E50016E026A0AC003F019
:100D50000BC004F03BEC08F01A4A1B2A164A172A6B
:100D60001C50165C1750800A0E6E1D50800A0E58DB
:100D7000D8A0BDEF06F0BFEF06F092EF06F05CA042
:100D8000C4EF06F0C6EF06F0E3EF06F0D4EF06F08E
:100D9000000E026E200E016E0AC003F00BC004F0BC
:100DA0003BEC08F01E4A1F2A18501E5C1F50800A98
:100DB0000E6E1950800A0E58D8A0E1EF06F0E3EF4E
:100DC00006F0C8EF06F01EC00AF01FC00BF01200BC
:100DD00020EE11F0070EDE6AE806FDE209500A1067
:100DE0000B100C100D100E100F101010D8B4FBEFDC
:100DF00006F0FDEF06F04FEF07F0010E196E0BEF56
:100E000007F0D89009360A360B360C360D360E36FA
:100E10000F361036192A10AE10EF07F012EF07F058
:100E200001EF07F0D8901136123613361436153606
:100E30001636173618360950015C0A5002580B5006
:100E400003580C5004580D5005580E5006580F50BA
:100E5000075810500858D8A030EF07F032EF07F0CD
:100E600043EF07F00950015E0A50025A0B50035A33
:100E70000C50045A0D50055A0E50065A0F50075A7E
:100E80001050085A1180D89010320F320E320D32A5
:100E90000C320B320A320932192E12EF07F011C050
:100EA00001F012C002F013C003F014C004F015C02A
:100EB00005F016C006F017C007F018C008F01200C1
:100EC000E4EC0AF0280E0001666F080E676F66C03A
:100ED00068F067C069F068C06AF069C06BF06FBF06
:100EE0007DEF07F06F5107E10A0E6E5DD8B07BEF22
:100EF00007F07DEF07F081EF07F0290E6A6F080E0B
:100F00006B6F5BBE8FEF07F05B5007E10A0E5A5C18
:100F1000D8B08DEF07F08FEF07F093EF07F0290EB1
:100F2000686F080E696F59BEA1EF07F0595007E1CD
:100F30000A0E585CD8B09FEF07F0A1EF07F0A5EFBD
:100F400007F0290E666F080E676F900EA06F000EF7
:100F5000A16F010EA26F080EA36F6AC0A4F06BC050
:100F6000A5F06EC0A6F06FC0A7F068C0A8F069C079
:100F7000A9F05AC0AAF05BC0ABF066C0ACF067C085
:100F8000ADF058C0AEF059C0AFF071EC0BF0010EEF
:100F9000046E020E50EC0AF0900E056E000E066E06
:100FA0009EEC09F0120009500A100B100C100D10E5
:100FB0000E100F101010D8B4E0EF07F0E2EF07F0BA
:100FC0002AEF08F0010E116EF0EF07F0D890093605
:100FD0000A360B360C360D360E360F361036112A01
:100FE00010AEF5EF07F0F7EF07F0E6EF07F0095066
:100FF000015C0A5002580B5003580C5004580D5015
:1010000005580E5006580F50075810500858D8A0D1
:101010000CEF08F00EEF08F01EEF08F00950015E2B
:101020000A50025A0B50035A0C50045A0D50055ADC
:101030000E50065A0F50075A1050085AD8901032C6
:101040000F320E320D320C320B320A320932112EAF
:10105000F7EF07F001C001F002C002F003C003F097
:1010600004C004F005C005F006C006F007C007F094
:1010700008C008F0120003500410D8B442EF08F082
:1010800044EF08F04DEF08F003500410D8A44BEFE4
:1010900008F04DEF08F052EF08F0015092EC0CF020
:1010A0009FEF08F020EE04F00350D9260450DA2216
:1010B000DE50DE10D8B45FEF08F061EF08F07CEF8F
:1010C00008F020EE04F00350D9260450DA2210EE86
:1010D00002F00350E1260450E222DE50E65CE650C6
:1010E000800A096EDE50800A0958D8B07AEF08F0FD
:1010F0007CEF08F09FEF08F020EE02F00350D926B5
:101100000450DA22DECF05F0DDCF06F003C0D9FFB0
:1011100004C0DAFFDECF07F0DDCF08F0055007246A
:10112000D96E06500820DA6E01C0DFFF20EE02F013
:101130000350D9260450DA22DE2A000EDD221200E6
:101140005CA0A5EF08F0A7EF08F0B1EF08F013C01E
:101150000AF014C00BF011C00CF012C00DF0C1EC7D
:101160000BF016BEB6EF08F0B8EF08F0BEEF08F0CF
:1011700015C01AF016C01BF0C2EF08F0000E1B6E6F
:10118000000E1A6E000E196E000E186ED4EF08F0E5
:10119000000E026E200E016E11C003F012C004F0AA
:1011A0003BEC08F0184A192A1A50185C1950800AAA
:1011B000176E1B50800A1758D8A0E1EF08F0E3EF34
:1011C00008F0C8EF08F05CB0E8EF08F0EAEF08F0CC
:1011D000F4EF08F013C00AF014C00BF011C00CF0CB
:1011E00012C00DF0C1EC0BF013C001F014C002F0FE
:1011F0009AEC0BF01A500124116E1B500220126E53
:1012000012000600E1CFBCF0E2CFBDF0D9CFBEF0B6
:10121000DACFBFF0F6CFC0F0F7CFC1F0F8CFC2F011
:10122000F5CFC3F0F2A417EF09F019EF09F04AEF78
:1012300009F00001D551FF08B86FFF0ED655B96F00
:10124000000ED755BA6F000ED855BB6FB9C0B8F0B5
:10125000BAC0B9F0BBC0BAF0BB6BBABFBB69B8517A
:10126000D76ED551FF0AD66E4B0E6C196D11D8A4EE
:101270003CEF09F03EEF09F047EF09F060EC07F0B2
:10128000000E00016D6F000E6C6F49EF09F06C4BA2
:101290006D2BF294C3C0F5FFC2C0F8FFC1C0F7FFC9
:1012A000C0C0F6FFBFC0DAFFBEC0D9FFBDC0E2FFBD
:1012B000BCC0E1FF5E921100000E0001CD6F000E78
:1012C000CC6F7FEF09F00001CC51C825CA6FCD511A
:1012D000C921CB6FCAC0F6FFCBC0F7FFF86A070E73
:1012E000F76403D00800F55005D0F6CFE1FFF7CF43
:1012F000E2FFE75022EC0CF00001CC4BCD2BCC519F
:10130000C825CA6FCD51C921CB6FCAC0F6FFCBC06B
:10131000F7FFF86A070EF76403D00800F55005D010
:10132000F6CFE1FFF7CFE2FFE7500009D8A49BEF2B
:1013300009F09DEF09F063EF09F01200000E0A6E4C
:10134000000E096EBEEF09F009500524076E0A5021
:101350000620086E07C0F6FF08C0F7FFF86A070E00
:10136000F76403D00800F55005D0F6CFE1FFF7CFC2
:10137000E2FFE75041EC0CF0094A0A2A0950052423
:10138000076E0A500620086E07C0F6FF08C0F7FF78
:10139000F86A070EF76403D00800F55005D0F6CFC1
:1013A000E1FFF7CFE2FFE7500009D8A4DAEF09F038
:1013B000DCEF09F0A4EF09F01200000EB4EC0AF023
:1013C0001A0E0001C76FF80EE82EFED7C72FFCD704
:1013D00000F0030E5DEC0CF0070E0001C76F7D0EF0
:1013E000E82EFED7C72FFCD7030E5DEC0CF00F0ED6
:1013F0000001C76F470EE82EFED7C72FFCD700D0DD
:10140000030E5DEC0CF0020E5DEC0CF0020E5DECD8
:101410000CF0080E5DEC0CF0000E5DEC0CF00C0E08
:101420005DEC0CF0000E5DEC0CF0060E5DEC0CF0CB
:1014300012000001C86F0001C805D8A422EF0AF00D
:1014400024EF0AF036EF0AF0C7517F0FCB6FCB398C
:101450000F0BC96FCB510F0BCA6FC9515DEC0CF06C
:101460000001CA515DEC0CF04FEF0AF0020EC819F2
:10147000D8A43DEF0AF03FEF0AF04FEF0AF0C75152
:10148000BF0FCB6FCB390F0BC96FCB510F0BCA6F8F
:10149000C9515DEC0CF00001CA515DEC0CF012007A
:1014A000056E0504D8A457EF0AF059EF0AF06AEF69
:1014B0000AF004507F0F086E08380F0B066E0850B4
:1014C0000F0B076E065070EC0CF0075070EC0CF030
:1014D00082EF0AF0020E0518D8A471EF0AF073EF3C
:1014E0000AF082EF0AF00450BF0F086E08380F0BA5
:1014F000066E08500F0B076E065070EC0CF007508C
:1015000070EC0CF0120052C056F053C057F0000EB1
:101510000001616F000E606FA1EF0AF050C03CF057
:1015200051C03DF0560E3E6E000E3F6E54C040F06E
:1015300055C041F016EC04F03C50000160273D50CE
:10154000612356C0F6FF57C0F7FF0800F5500009A9
:10155000D8A4ADEF0AF0AFEF0AF08EEF0AF060C04A
:1015600050F061C051F012000001C46F0001C4A12D
:10157000BCEF0AF0BEEF0AF0C1EF0AF08C88C2EFB0
:101580000AF08C98C4A3C7EF0AF0C9EF0AF0CCEFB9
:101590000AF08C8ACDEF0AF08C9AC4A5D2EF0AF03B
:1015A000D4EF0AF0D7EF0AF08C8CD8EF0AF08C9CBD
:1015B000C4A7DDEF0AF0DFEF0AF0E2EF0AF08C8E4D
:1015C000E3EF0AF08C9E1200010E5824586E000EB4
:1015D0005920596E3C0E58185910D8A4F2EF0AF051
:1015E000F4EF0AF0FEEF0AF0000E596E000E586E8E
:1015F000010E5A245A6E000E5B205B6E3C0E5A1888
:101600005B10D8A406EF0BF008EF0BF013EF0BF014
:10161000000E5B6E000E5A6E010E00016E256E6F9D
:10162000000E6F216F6F12000E0EF66E190EF76E20
:10163000000EF86E00EECEF010EE0BF00900F5CFC4
:10164000EEFFE550E150FAE1200EF66E190EF76E4E
:10165000000EF86E00EE58F010EE04F00900F5CF21
:10166000EEFFE550E150FAE100EE60F0400EEE6A68
:10167000E806FDE15D6A5C6A5E905E92000EF86EBF
:10168000000103EF0CF0016E01A049EF0BF04BEFEE
:101690000BF04EEF0BF08C884FEF0BF08C9801A203
:1016A00054EF0BF056EF0BF059EF0BF08C8A5AEF1A
:1016B0000BF08C9A01A45FEF0BF061EF0BF064EF7D
:1016C0000BF08C8C65EF0BF08C9C01A66AEF0BF095
:1016D0006CEF0BF06FEF0BF08C8E70EF0BF08C9EBD
:1016E0001200A40E0001B06F000EB16FA0C0B2F0E6
:1016F000A1C0B3F0000EB56F000EB46F000EB76F4F
:10170000000EB66FB20E506E000E516EA2C052F0B7
:10171000A3C053F0B00E546E000E556E83EC0AF069
:101720000001B451A025D96EB551A121DA6E000E89
:10173000DF6E120001C003F002C004F0A2EF0BF054
:10174000014A022A01C0F6FF02C0F7FFF86A070E3D
:10175000F76403D00800F55005D0F6CFE1FFF7CFCE
:10176000E2FFE7500009D8A4B8EF0BF0BAEF0BF096
:10177000A0EF0BF00350015C016E04500258026EA2
:101780001200000E106E000E0F6ED2EF0BF00EC0A6
:1017900001F0026A0CC003F00DC004F03BEC08F04D
:1017A0000F4A102A0F500A24D96E10500B20DA6EFF
:1017B000DF500E6E0E50D8A4E0EF0BF0E2EF0BF00E
:1017C000C7EF0BF01200D59CD59AD5860001D551F4
:1017D000FF08C46FFF0ED655C56F000ED755C66FF4
:1017E000000ED855C76FC5C0C4F0C6C0C5F0C7C08D
:1017F000C6F0C76BC6BFC769C451D76ED551FF0AC3
:10180000D66ED58E1200000E956E000E966E600E8E
:10181000D36E8DEC0CF0E3EC0BF0DDEC09F080EC1A
:101820000CF0010E0001C76F010E19EC0AF0180E42
:101830000001C86F080EC96F5CEC09F01EEF0CF0D8
:1018400007EF00F00001C76F0001C7510F0BC56F14
:10185000C751F00BC66F8D80C6390F0BB4EC0AF080
:101860008D820D0EE82EFED700F08D920001C5513D
:10187000B4EC0AF08D820D0EE82EFED700F08D92AA
:101880001200046E04500F0B026E0450F00B036E36
:101890008D8003380F0B43EC0BF08D820D0EE82E7C
:1018A000FED700F08D92025043EC0BF08D820D0EAE
:1018B000E82EFED700F08D9212000001C66F8D90C9
:1018C0000001C651B4EC0AF08D82060E0001C56F0E
:1018D000300EE82EFED7C52FFCD700F08D921200F7
:1018E000036E8D90035043EC0BF08D82060E026E5A
:1018F000300EE82EFED7022EFCD700D08D921200BB
:10190000000E5DEC0CF0010E5DEC0CF01200286E88
:09191000756C6C29001027000021
:0C191A00F28EF28A120039003B0012002D
:020000040020DA
:08000000FFFFFFFFFFFFFFFF00
:020000040030CA
:0E00000000091F1EFF0385FF0FC00FE00F4019
:00000001FF
